S01900004735355F576169745F4D6F64655F50494F2E737265633B
S21440000048080020A501400029024000290240007F
S214400010290240002902400029024000000000005A
S2144000200000000000000000000000002902400020
S214400030290240000000000029024000290240003A
S21440004029024000290240002902400029024000BF
S21440005029024000290240002902400029024000AF
S214400060290240002902400000000000AD02400086
S214400070290240002902400029024000290240008F
S214400080290240002902400029024000290240007F
S214400090290240002902400029024000290240006F
S2144000A0290240002902400029024000290240005F
S2144000B029024000290240002902400000000000BA
S2144000C000000000000000000000000000000000EB
S2144000D000000000000000000000000000000000DB
S2144000E000000000000000000000000000000000CB
S2144000F00000000000000000000000002902400050
S21440010029024000290240000000000000000000D4
S214400110000000000000000000000000000000009A
S214400120000000000000000000000000000000008A
S214400130000000000000000000000000000000007A
S214400140000000000000000010B5054C237833B9CD
S214400150044B13B10448AFF300800123237010BD55
S214400160280400200000000050054000084B10B551
S2144001701BB108480849AFF300800848036803B934
S21440018010BD074B002BFBD0BDE81040184700BF02
S21440019000000000500540002C04002050054000A0
S2144001A00000000080B582B000AF164B7B60164B57
S2144001B03B607A683B689A420CD007E03B681A1D61
S2144001C03A607A68111D796012681A603B680F4A77
S2144001D09342F3D30E4B3B6004E03B681A1D3A60F3
S2144001E000221A603B680B4A9342F6D30A4B7B6068
S2144001F00A4A7B6823F07F039360094B9847094B74
S2144002009847FEE7500540000000002028040020E4
S21440021028040020480400200000400000ED00E0D4
S214400220710340002D03400080B400AFFEE700BFDE
S21440023080B400AF0E4A0E4B5B6843F400435360F5
S2144002400C4B4FF480721A6000BF0B4B9B6E03F44E
S2144002500033002BF9D0084A074B1B6A43F45C1363
S21440026043F020031362BD465DF8047B704700BF31
S21440027050140E40000A0E4000040E4080B483B076
S21440028000AF0346FB71084997F907305B09FA79D6
S21440029002F01F02012000FA02F241F823200C3738
S2144002A0BD465DF8047B704700E100E080B400AFD7
S2144002B0044BDB6C044B01221A70BD465DF8047B90
S2144002C0704700BF000E0E404404002080B500AFCB
S2144002D0134B4FF400621A61124B40221A61114BC5
S2144002E040221A660F4B40225A630E4B04225A662F
S2144002F00C4B0422C3F8C0200A4B0422C3F8D0207B
S214400300084B0422C3F8B020064B04221A62054B61
S214400310DB6C044B04221A640B20034B984780BDC9
S21440032000040E40000E0E407D02400080B500AF37
S2144003300A4B98470A4B98470A4B00221A700A4BBA
S21440034040225A6300BF074B1B78DBB2002BFAD023
S214400350054B40221A63054B9847EDE731024000B3
S214400360CD02400044040020000E0E40DD04400054
S21440037070B50F4E0F4D761BB61018BF002405D033
S214400380013455F8043B9847A642F9D10A4E0B4D26
S214400390761B00F091F8B61018BF002406D0013442
S2144003A055F8043B9847A642F9D170BD70BD00BFD2
S2144003B0C4044000C4044000CC044000C4044000D0
S2144003C0024B13B1024800F005B870470000000029
S2144003D0E1034000014600200246034600F016B8FE
S2144003E038B5084B084DED1AAC1018BFED1805D0BF
S2144003F0013C55F8043D9847002CF9D1BDE83840FB
S21440040000F064B8D8044000DC0440002DE9F04712
S214400410254C2568D5F84841064688469246994672
S214400420CCB360681F2818DC431C7EB104EB800503
S2144004300121C5F888A0D4F8887101FA00F2174364
S214400440022EC4F88871C5F808911ED00230636049
S21440045044F820800020BDE8F087144B03B34FF4E7
S214400460C870AFF300800446D0B1D5F848310027B5
S21440047080E88800C5F8484138460123C4F88871AA
S214400480C4F88C71002EE1D0D0E7D4F88C110A4322
S214400490C4F88C21DAE705F5A674C5F84841C0E7EC
S2144004A04FF0FF30BDE8F087B40440000000000085
S2144004B04300000000000020F8B500BFF8BC08BCB0
S2144004C09E467047C10340006D014000F8B500BF2E
S2104004D0F8BC08BC9E467047490140003E
S2144004DC80B400AF194A194B1B6F43F004031367E3
S2144004EC00BF174BDB6B03F00403002BF9D0134A09
S2144004FC124B1B6F23F4C0031367104A0F4B1B6F32
S21440050C43F4800313670D4A0C4B1B6A43F45C138D
S21440051C43F00403136200BF084B9B6E03F00803C2
S21440052C002BF9D000BF054B1B6A03F00803002BC9
S21440053CF9D0BD465DF8047B704700BF00040E4002
S20840054C000E0E400A
S21440055000000000EC02002054030020BC030020F2
S2144005600000000000000000000000000000000046
S2144005700000000000000000000000000000000036
S21440058000000000B0044000000000000000000032
S2144005900000000000000000000000000000000016
S2144005A00000000000000000000000000000000006
S2144005B000000000000000000000000000000000F6
S2144005C000000000000000000000000000000000E6
S2144005D000000000000000000000000000000000D6
S2144005E000000000000000000000000000000000C6
S2144005F000000000000000000100000000000000B5
S2144006000E33CDAB34126DE6ECDE05000B00000079
S2144006100000000000000000000000000000000095
S2144006200000000000000000000000000000000085
S2144006300000000000000000000000000000000075
S2144006400000000000000000000000000000000065
S804400000BB
