S01E00004735355F31322D6269745F4144435F6578616D706C652E73726563B5
S21440000050080020A9014000A5014000A50140007D
S214400010A5014000A5014000A501400000000000E9
S214400020000000000000000000000000A5014000A5
S214400030A501400000000000A5014000A5014000C9
S214400040A5014000A5014000A5014000A5014000D3
S214400050A5014000A5014000A5014000A5014000C3
S214400060A5014000A501400000000000A501400099
S214400070A5014000A5014000A5014000A5014000A3
S214400080A5014000A5014000A5014000A501400093
S214400090A5014000A5014000A5014000A501400083
S2144000A0A5014000A5014000A5014000A501400073
S2144000B0A5014000D9024000A50140000000000014
S2144000C000000000000000000000000000000000EB
S2144000D000000000000000000000000000000000DB
S2144000E000000000000000000000000000000000CB
S2144000F0000000000000000000000000A5014000D5
S214400100A5014000A50140000000000000000000DE
S214400110000000000000000000000000000000009A
S214400120000000000000000000000000000000008A
S214400130000000000000000000000000000000007A
S214400140000000000000000010B5054C237833B9CD
S214400150044B13B10448AFF300800123237010BD55
S2144001603004002000000000E8044000084B10B5B2
S2144001701BB108480849AFF300800848036803B934
S21440018010BD074B002BFBD0BDE81040184700BF02
S21440019000000000E804400034040020E80440006A
S2144001A000000000FEE700BF08B5194B194A9A4206
S2144001B003D0194B164A9A4204D3184B184A9A420F
S2144001C010D31BE012490A1D164B9B1A23F003035B
S2144001D00433104A134452F8040B41F8040B9A4275
S2144001E0F9D1EAE7104B114AD21A22F003021A4418
S2144001F0043B002143F8041B9342FBD10C4A0D4BB1
S21440020023F07F0393600C4B98470C4B9847FEE7D0
S21440021000000020E8044000300400205004002085
S214400220300400203304002034040020530400200F
S21440023000ED00E0000040007D034000FD0240006D
S2144002400C4A536843F4004353604FF480720A4BA1
S2144002501A600A4A936E13F4003FFBD0074A136AAB
S21440026043F45C1343F020031362054A054B1A60BF
S214400270704700BF50140E40000A0E4000040E4067
S21440028000366E0100000020104B01225A601A6FA3
S21440029042F001021A675A6F22F001025A67D3F8F9
S2144002A0902042F00102C3F890201A6E42F00102FC
S2144002B01A664FF40002A3F520631A61044B054A00
S2144002C05A600C225A611822DA617047000E0E40BE
S2144002D00000014002C00600064B1A6B12F0040FE5
S2144002E003D09B6D9BB204490B8012F0007F00D078
S2144002F0FEE77047008003404C04002008B5194BC9
S21440030098474FF40022184B1A634FF00051A3F55C
S21440031020631961154B1A6C42F400121A645A682D
S2144003205A605A6842F002025A605A685A605A68DE
S2144003305A600222C3F820211A6A5A6A42F00072B2
S21440034042F004025A620A4A11605A6842F00102B8
S2144003505A6004221A61074B98470522064B1A60DA
S214400360FEE700BF41024000000E0E400080034002
S21440037000E100E0890240000000014070B50F4EE9
S2144003800F4D761BB61018BF002405D0013455F823
S214400390043B9847A642F9D10A4E0B4D761B00F017
S2144003A091F8B61018BF002406D0013455F8043B27
S2144003B09847A642F9D170BD70BD00BFD00440003A
S2144003C0D0044000D8044000D0044000024B13B193
S2144003D0024800F005B8704700000000ED034000FA
S2144003E0014600200246034600F016B838B5084BD2
S2144003F0084DED1AAC1018BFED1805D0013C55F865
S214400400043D9847002CF9D1BDE8384000F064B868
S214400410E4044000E80440002DE9F047254C2568F8
S214400420D5F848410646884692469946CCB3606819
S2144004301F2818DC431C7EB104EB80050121C5F85B
S21440044088A0D4F8887101FA00F21743022EC4F847
S2144004508871C5F808911ED00230636044F8208049
S2144004600020BDE8F087144B03B34FF4C870AFF3D9
S21440047000800446D0B1D5F84831002780E888008F
S214400480C5F8484138460123C4F88871C4F88C71D1
S214400490002EE1D0D0E7D4F88C110A43C4F88C2162
S2144004A0DAE705F5A674C5F84841C0E74FF0FF30D7
S2144004B0BDE8F087C0044000000000004300000094
S2144004C008000020F8B500BFF8BC08BC9E46704740
S2144004D0CD0340006D014000F8B500BFF8BC08BC35
S20C4004E09E46704749014000AA
S2144004E800127A000000000000000000F40200201D
S2144004F85C030020C4030020000000000000000049
S214400508000000000000000000000000000000009E
S214400518000000000000000000000000BC0440008E
S214400528000000000000000000000000000000007E
S214400538000000000000000000000000000000006E
S214400548000000000000000000000000000000005E
S214400558000000000000000000000000000000004E
S214400568000000000000000000000000000000003E
S214400578000000000000000000000000000000002E
S214400588000000000000000000000000000000001E
S21440059801000000000000000E33CDAB34126DE6BB
S2144005A8ECDE05000B000000000000000000000024
S2144005B800000000000000000000000000000000EE
S2144005C800000000000000000000000000000000DE
S2144005D800000000000000000000000000000000CE
S2144005E800000000000000000000000000000000BE
S804400000BB
