:020000040040BA
:1000000048080020A9014000A5014000A5014000CA
:10001000A5014000A5014000A5014000000000002E
:10002000000000000000000000000000A5014000EA
:10003000A501400000000000A5014000A50140000E
:10004000A5014000A5014000A5014000A501400018
:10005000A5014000A5014000A5014000A501400008
:10006000A5014000A501400000000000A5014000DE
:10007000A5014000A5014000A5014000A5014000E8
:10008000A5014000A5014000A5014000A5014000D8
:10009000A5014000A5014000A5014000A5014000C8
:1000A000A5014000A5014000A5014000A5014000B8
:1000B000A5014000A5014000A5014000000000008E
:1000C0000000000000000000000000000000000030
:1000D0000000000000000000000000000000000020
:1000E0000000000000000000000000000000000010
:1000F000000000000000000000000000A50140001A
:10010000A5014000A5014000000000000000000023
:1001100000000000000000000000000000000000DF
:1001200000000000000000000000000000000000CF
:1001300000000000000000000000000000000000BF
:10014000000000000000000010B5054C237833B912
:10015000044B13B10448AFF300800123237010BD9A
:1001600028040020000000001C044000084B10B5CB
:100170001BB108490848AFF300800848036803B979
:1001800010BD074B002BFBD0BDE81040184700BF47
:10019000000000002C0400201C0440001C0440004F
:1001A00000000000FEE700BF08B5194B194A9A424B
:1001B00003D0194B164A9A4204D3184B184A9A4254
:1001C0000FD31AE01249174B5B1A23F003030433D1
:1001D000104A134452F8040B41F8040B9A42F9D127
:1001E000EBE7114B114AD21A22F003021A44043BE6
:1001F000002143F8041B9342FBD10D4A0D4B23F021
:100200007F0393600C4B98470C4B9847FEE700BF69
:10021000000000201C0440002804002044040020AA
:1002200028040020270400202C040020470400207C
:1002300000ED00E000004000B50240004102400037
:100240004FF40042164B5A60164A403B1A605A69F6
:1002500012F0800FFBD0144A144B9A629A6E12F07F
:10026000020FFBD0114B9A6E12F0080FFBD00F4A11
:10027000136943F4006313610D4B4FF4003159606F
:10028000196F41F400311967596F21F40031596732
:1002900040F2827353644FF400731360FEE700BFB3
:1002A00050140E40080000A5013FA60E00040E40A9
:1002B000000E0E4070B50F4E0F4D761BB61018BFD6
:1002C000002405D0013455F8043B9847A642F9D1E3
:1002D0000A4E0B4D761B00F08FF8B61018BF0024A5
:1002E00006D0013455F8043B9847A642F9D170BDB9
:1002F00070BD00BF04044000040440000C04400032
:1003000004044000024B13B1024800F005B87047E6
:100310000000000025034000002301461A4618464D
:1003200000F014B838B5074D074C2C1BA41005D0AD
:10033000013C55F8043D9847002CF9D1BDE8384000
:1003400000F064B81C044000180440002DE9F04798
:10035000254C2568D5F84841064688469246994678
:10036000C4B360681F2817DC431C76B104EB80051A
:100370000122C5F888A0D4F8881182401143022ECA
:10038000C4F88811C5F808911ED00230636044F8A3
:1003900020800020BDE8F087144B03B34FF4C870F1
:1003A000AFF300800446D0B1D5F84831002780E88B
:1003B0008800C5F8484138460123C4F88871C4F85C
:1003C0008C71002EE1D0D1E7D4F88C110A43C4F827
:1003D0008C21DAE705F5A674C5F84841C1E74FF06E
:1003E000FF30BDE8F08700BFF403400000000000CC
:1003F0004300000000000020F8B500BFF8BC08BCB6
:100400009E467047050340006D014000F8B500BFEF
:0C041000F8BC08BC9E4670474901400043
:10041C0000000000EC02002054030020BC0300206C
:10042C0000000000000000000000000000000000C0
:10043C0000000000000000000000000000000000B0
:10044C0000000000F003400000000000000000006D
:10045C000000000000000000000000000000000090
:10046C000000000000000000000000000000000080
:10047C000000000000000000000000000000000070
:10048C000000000000000000000000000000000060
:10049C000000000000000000000000000000000050
:1004AC000000000000000000000000000000000040
:1004BC00000000000000000001000000000000002F
:1004CC000E33CDAB34126DE6ECDE05000B000000F4
:1004DC000000000000000000000000000000000010
:1004EC000000000000000000000000000000000000
:1004FC0000000000000000000000000000000000F0
:10050C0000000000000000000000000000000000DF
:0400000500400000B7
:00000001FF
